:020000020000FC
:0200000045C0F9
:080004005AD0189569D0189537
:10008C0000E10EBF0FEF0DBF00E008BB0FEF07BB89
:10009C000FEF02BB00E001BB00E000936A0000E040
:1000AC000ABF03E009BF789400E608BBFDCF0F93AD
:1000BC001F930FB70F9300E008BB14E61AD000E2B1
:1000CC0008BB18EC16D00F910FBF1F910F9108951C
:1000DC000F931F930FB70F9300E008BB14E609D0E2
:1000EC0000E408BB18EC05D00F910FBF1F910F91C6
:1000FC0008951F932F933F9330EE2DEE2A95F1F731
:10010C003A95D9F71A95C1F73F912F911F91089500
:00000001FF
