:020000020000FC
:0200000045C0F9
:10008C0000E10EBF0FEF0DBFECECF1E0A0E0B1E032
:10009C00222402D026D0FFCF3F924F922F92BF93B3
:1000AC00AF93DF93CF93FF93EF932224A0E0B1E0C3
:1000BC00C2E0D1E0E4E0F1E03D904990340C3192A3
:1000CC003C904880341C31923324321C3082EF91A6
:1000DC00FF91CF91DF91AF91BF912F904F903F90B7
:1000EC0008953F924F921F920F922F92BF93AF930E
:1000FC00DF93CF93FF93EF931F932F932224C4E0AE
:10010C00D1E0ECE0F1E013E0A4E0B1E023E03D90BD
:10011C004880349C31904190030C141C3080321C6C
:10012C0030821292029231962A9589F73297219653
:10013C001A9551F72F911F91EF91FF91CF91DF916C
:10014C00AF91BF912F900F901F904F903F900895BB
:10015C003F924F921F920F922F92BF93AF93DF93C8
:10016C00CF93FF93EF931F932F932224C2E0D1E000
:10017C00E4E0F1E012E0A0E0B1E022E03D90488044
:10018C00349C31904190030C141C3080321C308212
:10019C001292029231962A9589F7319721961A95E7
:1001AC0051F72F911F91EF91FF91CF91DF91AF916B
:1001BC00BF912F900F901F904F903F9008950895EE
:0401CC001352254065
:00000001FF
