:020000020000FC
:0C00000045D0189560D0189565D0189573
:02003C0053C0AF
:10008C000FEF0DBF00E10EBF00E008BB0FEF07BB89
:10009C000FEF02BB00E001BB00E000936A0000E040
:1000AC000ABF03E009BFBC9A07E703BF02E007BF22
:1000BC0061E1552744277894FFCF4F3061F0439589
:1000CC00560F0CD048BB0895403029F04A95561B6A
:1000DC0005D048BB0895089551BF189502E302BF9F
:1000EC001F933F932F9320EE3DEE3A95F1F72A950F
:0E00FC00D9F71A95C1F72F913F911F910895E2
:00000001FF
